{
  "contractName": "FundraiserFactory",
  "abi": [
    {
      "anonymous": false,
      "inputs": [
        {
          "indexed": true,
          "internalType": "contract Fundraiser",
          "name": "fundraiser",
          "type": "address"
        },
        {
          "indexed": true,
          "internalType": "address",
          "name": "owner",
          "type": "address"
        }
      ],
      "name": "FundraiserCreated",
      "type": "event"
    },
    {
      "inputs": [],
      "name": "fundraisersCount",
      "outputs": [
        {
          "internalType": "uint256",
          "name": "",
          "type": "uint256"
        }
      ],
      "stateMutability": "view",
      "type": "function",
      "constant": true
    },
    {
      "inputs": [
        {
          "internalType": "string",
          "name": "name",
          "type": "string"
        },
        {
          "internalType": "string",
          "name": "url",
          "type": "string"
        },
        {
          "internalType": "string",
          "name": "imageURL",
          "type": "string"
        },
        {
          "internalType": "string",
          "name": "description",
          "type": "string"
        }
      ],
      "name": "createFundraiser",
      "outputs": [],
      "stateMutability": "nonpayable",
      "type": "function"
    },
    {
      "inputs": [
        {
          "internalType": "uint256",
          "name": "limit",
          "type": "uint256"
        },
        {
          "internalType": "uint256",
          "name": "offset",
          "type": "uint256"
        }
      ],
      "name": "fundraisers",
      "outputs": [
        {
          "internalType": "contract Fundraiser[]",
          "name": "coll",
          "type": "address[]"
        }
      ],
      "stateMutability": "view",
      "type": "function",
      "constant": true
    }
  ],
  "bytecode": "0x608060405234801561001057600080fd5b50612533806100206000396000f3fe60806040523480156200001157600080fd5b5060043610620000465760003560e01c8063704914f8146200004b5780637a1e654014620000815780639d3b435514620000a1575b600080fd5b620000696004803603810190620000639190620003df565b620000c3565b6040516200007891906200056e565b60405180910390f35b6200009f6004803603810190620000999190620006f4565b6200026f565b005b620000ab62000376565b604051620000ba9190620007f3565b60405180910390f35b6060620000cf62000376565b82111562000114576040517f08c379a00000000000000000000000000000000000000000000000000000000081526004016200010b9062000871565b60405180910390fd5b6000826200012162000376565b6200012d9190620008c2565b90508381106200013e578362000140565b805b9050601481106200015357601462000155565b805b90508067ffffffffffffffff811115620001745762000173620005ad565b5b604051908082528060200260200182016040528015620001a35781602001602082028036833780820191505090505b50915060005b81811015620002675760008185620001c29190620008fd565b81548110620001d657620001d562000938565b5b9060005260206000200160009054906101000a900473ffffffffffffffffffffffffffffffffffffffff1683828151811062000217576200021662000938565b5b602002602001019073ffffffffffffffffffffffffffffffffffffffff16908173ffffffffffffffffffffffffffffffffffffffff168152505080806200025e9062000967565b915050620001a9565b505092915050565b600084848484604051620002839062000382565b62000292949392919062000a2c565b604051809103906000f080158015620002af573d6000803e3d6000fd5b5090506000819080600181540180825580915050600190039060005260206000200160009091909190916101000a81548173ffffffffffffffffffffffffffffffffffffffff021916908373ffffffffffffffffffffffffffffffffffffffff1602179055503373ffffffffffffffffffffffffffffffffffffffff168173ffffffffffffffffffffffffffffffffffffffff167fa2398daac0c8053a1e3c0280916c2ec6bc884f0959c27e639a4db829b7eabfb160405160405180910390a35050505050565b60008080549050905090565b611a688062000a9683390190565b6000604051905090565b600080fd5b600080fd5b6000819050919050565b620003b981620003a4565b8114620003c557600080fd5b50565b600081359050620003d981620003ae565b92915050565b60008060408385031215620003f957620003f86200039a565b5b60006200040985828601620003c8565b92505060206200041c85828601620003c8565b9150509250929050565b600081519050919050565b600082825260208201905092915050565b6000819050602082019050919050565b600073ffffffffffffffffffffffffffffffffffffffff82169050919050565b6000819050919050565b60006200049d62000497620004918462000452565b62000472565b62000452565b9050919050565b6000620004b1826200047c565b9050919050565b6000620004c582620004a4565b9050919050565b620004d781620004b8565b82525050565b6000620004eb8383620004cc565b60208301905092915050565b6000602082019050919050565b6000620005118262000426565b6200051d818562000431565b93506200052a8362000442565b8060005b8381101562000561578151620005458882620004dd565b97506200055283620004f7565b9250506001810190506200052e565b5085935050505092915050565b600060208201905081810360008301526200058a818462000504565b905092915050565b600080fd5b600080fd5b6000601f19601f8301169050919050565b7f4e487b7100000000000000000000000000000000000000000000000000000000600052604160045260246000fd5b620005e7826200059c565b810181811067ffffffffffffffff82111715620006095762000608620005ad565b5b80604052505050565b60006200061e62000390565b90506200062c8282620005dc565b919050565b600067ffffffffffffffff8211156200064f576200064e620005ad565b5b6200065a826200059c565b9050602081019050919050565b82818337600083830152505050565b60006200068d620006878462000631565b62000612565b905082815260208101848484011115620006ac57620006ab62000597565b5b620006b984828562000667565b509392505050565b600082601f830112620006d957620006d862000592565b5b8135620006eb84826020860162000676565b91505092915050565b600080600080608085870312156200071157620007106200039a565b5b600085013567ffffffffffffffff8111156200073257620007316200039f565b5b6200074087828801620006c1565b945050602085013567ffffffffffffffff8111156200076457620007636200039f565b5b6200077287828801620006c1565b935050604085013567ffffffffffffffff8111156200079657620007956200039f565b5b620007a487828801620006c1565b925050606085013567ffffffffffffffff811115620007c857620007c76200039f565b5b620007d687828801620006c1565b91505092959194509250565b620007ed81620003a4565b82525050565b60006020820190506200080a6000830184620007e2565b92915050565b600082825260208201905092915050565b7f6f6666736574206f7574206f6620626f756e6473000000000000000000000000600082015250565b60006200085960148362000810565b9150620008668262000821565b602082019050919050565b600060208201905081810360008301526200088c816200084a565b9050919050565b7f4e487b7100000000000000000000000000000000000000000000000000000000600052601160045260246000fd5b6000620008cf82620003a4565b9150620008dc83620003a4565b9250828203905081811115620008f757620008f662000893565b5b92915050565b60006200090a82620003a4565b91506200091783620003a4565b925082820190508082111562000932576200093162000893565b5b92915050565b7f4e487b7100000000000000000000000000000000000000000000000000000000600052603260045260246000fd5b60006200097482620003a4565b91507fffffffffffffffffffffffffffffffffffffffffffffffffffffffffffffffff8203620009a957620009a862000893565b5b600182019050919050565b600081519050919050565b60005b83811015620009df578082015181840152602081019050620009c2565b60008484015250505050565b6000620009f882620009b4565b62000a04818562000810565b935062000a16818560208601620009bf565b62000a21816200059c565b840191505092915050565b6000608082019050818103600083015262000a488187620009eb565b9050818103602083015262000a5e8186620009eb565b9050818103604083015262000a748185620009eb565b9050818103606083015262000a8a8184620009eb565b90509594505050505056fe60806040523480156200001157600080fd5b5060405162001a6838038062001a68833981810160405281019062000037919062000308565b620000576200004b620000a960201b60201c565b620000b160201b60201c565b836001908162000068919062000641565b5082600290816200007a919062000641565b5081600390816200008c919062000641565b5080600490816200009e919062000641565b505050505062000728565b600033905090565b60008060009054906101000a900473ffffffffffffffffffffffffffffffffffffffff169050816000806101000a81548173ffffffffffffffffffffffffffffffffffffffff021916908373ffffffffffffffffffffffffffffffffffffffff1602179055508173ffffffffffffffffffffffffffffffffffffffff168173ffffffffffffffffffffffffffffffffffffffff167f8be0079c531659141344cd1fd0a4f28419497f9722a3daafe3b4186f6b6457e060405160405180910390a35050565b6000604051905090565b600080fd5b600080fd5b600080fd5b600080fd5b6000601f19601f8301169050919050565b7f4e487b7100000000000000000000000000000000000000000000000000000000600052604160045260246000fd5b620001de8262000193565b810181811067ffffffffffffffff821117156200020057620001ff620001a4565b5b80604052505050565b60006200021562000175565b9050620002238282620001d3565b919050565b600067ffffffffffffffff821115620002465762000245620001a4565b5b620002518262000193565b9050602081019050919050565b60005b838110156200027e57808201518184015260208101905062000261565b60008484015250505050565b6000620002a16200029b8462000228565b62000209565b905082815260208101848484011115620002c057620002bf6200018e565b5b620002cd8482856200025e565b509392505050565b600082601f830112620002ed57620002ec62000189565b5b8151620002ff8482602086016200028a565b91505092915050565b600080600080608085870312156200032557620003246200017f565b5b600085015167ffffffffffffffff81111562000346576200034562000184565b5b6200035487828801620002d5565b945050602085015167ffffffffffffffff81111562000378576200037762000184565b5b6200038687828801620002d5565b935050604085015167ffffffffffffffff811115620003aa57620003a962000184565b5b620003b887828801620002d5565b925050606085015167ffffffffffffffff811115620003dc57620003db62000184565b5b620003ea87828801620002d5565b91505092959194509250565b600081519050919050565b7f4e487b7100000000000000000000000000000000000000000000000000000000600052602260045260246000fd5b600060028204905060018216806200044957607f821691505b6020821081036200045f576200045e62000401565b5b50919050565b60008190508160005260206000209050919050565b60006020601f8301049050919050565b600082821b905092915050565b600060088302620004c97fffffffffffffffffffffffffffffffffffffffffffffffffffffffffffffffff826200048a565b620004d586836200048a565b95508019841693508086168417925050509392505050565b6000819050919050565b6000819050919050565b6000620005226200051c6200051684620004ed565b620004f7565b620004ed565b9050919050565b6000819050919050565b6200053e8362000501565b620005566200054d8262000529565b84845462000497565b825550505050565b600090565b6200056d6200055e565b6200057a81848462000533565b505050565b5b81811015620005a2576200059660008262000563565b60018101905062000580565b5050565b601f821115620005f157620005bb8162000465565b620005c6846200047a565b81016020851015620005d6578190505b620005ee620005e5856200047a565b8301826200057f565b50505b505050565b600082821c905092915050565b60006200061660001984600802620005f6565b1980831691505092915050565b600062000631838362000603565b9150826002028217905092915050565b6200064c82620003f6565b67ffffffffffffffff811115620006685762000667620001a4565b5b62000674825462000430565b62000681828285620005a6565b600060209050601f831160018114620006b95760008415620006a4578287015190505b620006b0858262000623565b86555062000720565b601f198416620006c98662000465565b60005b82811015620006f357848901518255600182019150602085019450602081019050620006cc565b868310156200071357848901516200070f601f89168262000603565b8355505b6001600288020188555050505b505050505050565b61133080620007386000396000f3fe6080604052600436106100f75760003560e01c80635600f04f1161008a578063b90497e011610059578063b90497e014610307578063de2ed89314610332578063ed88c68e1461035d578063f2fde38b14610367576100f8565b80635600f04f1461026f578063715018a61461029a5780637284e416146102b15780638da5cb5b146102dc576100f8565b80631f522595116100c65780631f522595146101d7578063375b74c31461020257806338af3eed1461022d5780633ccfd60b14610258576100f8565b80630180b97c1461012c57806306fdde03146101575780631a57f7b4146101825780631c31f710146101ae576100f8565b5b61010d3460085461039090919063ffffffff16565b6008819055506009600081548092919061012690610da2565b91905055005b34801561013857600080fd5b506101416103a6565b60405161014e9190610df9565b60405180910390f35b34801561016357600080fd5b5061016c6103f0565b6040516101799190610ea4565b60405180910390f35b34801561018e57600080fd5b5061019761047e565b6040516101a5929190610f84565b60405180910390f35b3480156101ba57600080fd5b506101d560048036038101906101d0919061101e565b6105f3565b005b3480156101e357600080fd5b506101ec6106b3565b6040516101f99190610df9565b60405180910390f35b34801561020e57600080fd5b506102176106b9565b604051610224919061106c565b60405180910390f35b34801561023957600080fd5b506102426106df565b60405161024f9190611096565b60405180910390f35b34801561026457600080fd5b5061026d610705565b005b34801561027b57600080fd5b50610284610829565b6040516102919190610ea4565b60405180910390f35b3480156102a657600080fd5b506102af6108b7565b005b3480156102bd57600080fd5b506102c661093f565b6040516102d39190610ea4565b60405180910390f35b3480156102e857600080fd5b506102f16109cd565b6040516102fe919061106c565b60405180910390f35b34801561031357600080fd5b5061031c6109f6565b6040516103299190610ea4565b60405180910390f35b34801561033e57600080fd5b50610347610a84565b6040516103549190610df9565b60405180910390f35b610365610a8a565b005b34801561037357600080fd5b5061038e600480360381019061038991906110dd565b610ba6565b005b6000818361039e919061110a565b905092915050565b6000600760003373ffffffffffffffffffffffffffffffffffffffff1673ffffffffffffffffffffffffffffffffffffffff16815260200190815260200160002080549050905090565b600180546103fd9061116d565b80601f01602080910402602001604051908101604052809291908181526020018280546104299061116d565b80156104765780601f1061044b57610100808354040283529160200191610476565b820191906000526020600020905b81548152906001019060200180831161045957829003601f168201915b505050505081565b606080600061048b6103a6565b90508067ffffffffffffffff8111156104a7576104a661119e565b5b6040519080825280602002602001820160405280156104d55781602001602082028036833780820191505090505b5092508067ffffffffffffffff8111156104f2576104f161119e565b5b6040519080825280602002602001820160405280156105205781602001602082028036833780820191505090505b50915060005b818110156105ed576000600760003373ffffffffffffffffffffffffffffffffffffffff1673ffffffffffffffffffffffffffffffffffffffff1681526020019081526020016000208281548110610581576105806111cd565b5b9060005260206000209060020201905080600001548583815181106105a9576105a86111cd565b5b60200260200101818152505080600101548483815181106105cd576105cc6111cd565b5b6020026020010181815250505080806105e590610da2565b915050610526565b50509091565b6105fb610c9d565b73ffffffffffffffffffffffffffffffffffffffff166106196109cd565b73ffffffffffffffffffffffffffffffffffffffff161461066f576040517f08c379a000000000000000000000000000000000000000000000000000000000815260040161066690611248565b60405180910390fd5b80600560006101000a81548173ffffffffffffffffffffffffffffffffffffffff021916908373ffffffffffffffffffffffffffffffffffffffff16021790555050565b60095481565b600660009054906101000a900473ffffffffffffffffffffffffffffffffffffffff1681565b600560009054906101000a900473ffffffffffffffffffffffffffffffffffffffff1681565b61070d610c9d565b73ffffffffffffffffffffffffffffffffffffffff1661072b6109cd565b73ffffffffffffffffffffffffffffffffffffffff1614610781576040517f08c379a000000000000000000000000000000000000000000000000000000000815260040161077890611248565b60405180910390fd5b6000479050600560009054906101000a900473ffffffffffffffffffffffffffffffffffffffff1673ffffffffffffffffffffffffffffffffffffffff166108fc829081150290604051600060405180830381858888f193505050501580156107ee573d6000803e3d6000fd5b507f5b6b431d4476a211bb7d41c20d1aab9ae2321deee0d20be3d9fc9b1093fa6e3d8160405161081e9190610df9565b60405180910390a150565b600280546108369061116d565b80601f01602080910402602001604051908101604052809291908181526020018280546108629061116d565b80156108af5780601f10610884576101008083540402835291602001916108af565b820191906000526020600020905b81548152906001019060200180831161089257829003601f168201915b505050505081565b6108bf610c9d565b73ffffffffffffffffffffffffffffffffffffffff166108dd6109cd565b73ffffffffffffffffffffffffffffffffffffffff1614610933576040517f08c379a000000000000000000000000000000000000000000000000000000000815260040161092a90611248565b60405180910390fd5b61093d6000610ca5565b565b6004805461094c9061116d565b80601f01602080910402602001604051908101604052809291908181526020018280546109789061116d565b80156109c55780601f1061099a576101008083540402835291602001916109c5565b820191906000526020600020905b8154815290600101906020018083116109a857829003601f168201915b505050505081565b60008060009054906101000a900473ffffffffffffffffffffffffffffffffffffffff16905090565b60038054610a039061116d565b80601f0160208091040260200160405190810160405280929190818152602001828054610a2f9061116d565b8015610a7c5780601f10610a5157610100808354040283529160200191610a7c565b820191906000526020600020905b815481529060010190602001808311610a5f57829003601f168201915b505050505081565b60085481565b60006040518060400160405280348152602001428152509050600760003373ffffffffffffffffffffffffffffffffffffffff1673ffffffffffffffffffffffffffffffffffffffff16815260200190815260200160002081908060018154018082558091505060019003906000526020600020906002020160009091909190915060008201518160000155602082015181600101555050610b373460085461039090919063ffffffff16565b60088190555060096000815480929190610b5090610da2565b91905055503373ffffffffffffffffffffffffffffffffffffffff167f264f630d9efa0d07053a31163641d9fcc0adafc9d9e76f1c37c2ce3a558d2c5234604051610b9b9190610df9565b60405180910390a250565b610bae610c9d565b73ffffffffffffffffffffffffffffffffffffffff16610bcc6109cd565b73ffffffffffffffffffffffffffffffffffffffff1614610c22576040517f08c379a0000000000000000000000000000000000000000000000000000000008152600401610c1990611248565b60405180910390fd5b600073ffffffffffffffffffffffffffffffffffffffff168173ffffffffffffffffffffffffffffffffffffffff1603610c91576040517f08c379a0000000000000000000000000000000000000000000000000000000008152600401610c88906112da565b60405180910390fd5b610c9a81610ca5565b50565b600033905090565b60008060009054906101000a900473ffffffffffffffffffffffffffffffffffffffff169050816000806101000a81548173ffffffffffffffffffffffffffffffffffffffff021916908373ffffffffffffffffffffffffffffffffffffffff1602179055508173ffffffffffffffffffffffffffffffffffffffff168173ffffffffffffffffffffffffffffffffffffffff167f8be0079c531659141344cd1fd0a4f28419497f9722a3daafe3b4186f6b6457e060405160405180910390a35050565b7f4e487b7100000000000000000000000000000000000000000000000000000000600052601160045260246000fd5b6000819050919050565b6000610dad82610d98565b91507fffffffffffffffffffffffffffffffffffffffffffffffffffffffffffffffff8203610ddf57610dde610d69565b5b600182019050919050565b610df381610d98565b82525050565b6000602082019050610e0e6000830184610dea565b92915050565b600081519050919050565b600082825260208201905092915050565b60005b83811015610e4e578082015181840152602081019050610e33565b60008484015250505050565b6000601f19601f8301169050919050565b6000610e7682610e14565b610e808185610e1f565b9350610e90818560208601610e30565b610e9981610e5a565b840191505092915050565b60006020820190508181036000830152610ebe8184610e6b565b905092915050565b600081519050919050565b600082825260208201905092915050565b6000819050602082019050919050565b610efb81610d98565b82525050565b6000610f0d8383610ef2565b60208301905092915050565b6000602082019050919050565b6000610f3182610ec6565b610f3b8185610ed1565b9350610f4683610ee2565b8060005b83811015610f77578151610f5e8882610f01565b9750610f6983610f19565b925050600181019050610f4a565b5085935050505092915050565b60006040820190508181036000830152610f9e8185610f26565b90508181036020830152610fb28184610f26565b90509392505050565b600080fd5b600073ffffffffffffffffffffffffffffffffffffffff82169050919050565b6000610feb82610fc0565b9050919050565b610ffb81610fe0565b811461100657600080fd5b50565b60008135905061101881610ff2565b92915050565b60006020828403121561103457611033610fbb565b5b600061104284828501611009565b91505092915050565b600061105682610fc0565b9050919050565b6110668161104b565b82525050565b6000602082019050611081600083018461105d565b92915050565b61109081610fe0565b82525050565b60006020820190506110ab6000830184611087565b92915050565b6110ba8161104b565b81146110c557600080fd5b50565b6000813590506110d7816110b1565b92915050565b6000602082840312156110f3576110f2610fbb565b5b6000611101848285016110c8565b91505092915050565b600061111582610d98565b915061112083610d98565b925082820190508082111561113857611137610d69565b5b92915050565b7f4e487b7100000000000000000000000000000000000000000000000000000000600052602260045260246000fd5b6000600282049050600182168061118557607f821691505b6020821081036111985761119761113e565b5b50919050565b7f4e487b7100000000000000000000000000000000000000000000000000000000600052604160045260246000fd5b7f4e487b7100000000000000000000000000000000000000000000000000000000600052603260045260246000fd5b7f4f776e61626c653a2063616c6c6572206973206e6f7420746865206f776e6572600082015250565b6000611232602083610e1f565b915061123d826111fc565b602082019050919050565b6000602082019050818103600083015261126181611225565b9050919050565b7f4f776e61626c653a206e6577206f776e657220697320746865207a65726f206160008201527f6464726573730000000000000000000000000000000000000000000000000000602082015250565b60006112c4602683610e1f565b91506112cf82611268565b604082019050919050565b600060208201905081810360008301526112f3816112b7565b905091905056fea2646970667358221220b9ca6656ead6ed8a8d1020351cb7eaae1776b3c1bf7c344afe33d911a9a8bf2264736f6c63430008110033a2646970667358221220828097e3adfdaf1c538f562a8eceea0f388735762441999df7ce13e337ad8a9e64736f6c63430008110033",
  "immutableReferences": {},
  "source": "pragma solidity >0.4.23;\r\n\r\nimport \"./Fundraiser.sol\";\r\n\r\ncontract FundraiserFactory {\r\n    Fundraiser[] private _fundraisers;\r\n    uint256 constant maxLimit = 20;\r\n\r\n    event FundraiserCreated (Fundraiser indexed fundraiser, address indexed owner);\r\n\r\n    function fundraisersCount () public view returns (uint256) {\r\n        return _fundraisers.length;\r\n    }\r\n    function createFundraiser (string memory name, string memory url, string memory imageURL, string memory description) public {\r\n        Fundraiser fundraiser = new Fundraiser (name, url, imageURL, description);\r\n        _fundraisers.push(fundraiser);\r\n        emit FundraiserCreated(fundraiser, msg.sender);\r\n    }\r\n\r\n    function fundraisers (uint256 limit, uint256 offset) public view returns (Fundraiser[] memory coll) {    \r\n        require (offset <= fundraisersCount(), \"offset out of bounds\");\r\n        uint256 size = fundraisersCount() - offset;\r\n        size = size < limit ? size : limit;\r\n        size = size < maxLimit ? size : maxLimit;\r\n        coll = new Fundraiser[](size);\r\n\r\n        for (uint256 i = 0; i < size; i++) {\r\n            coll[i] = _fundraisers[offset + i];\r\n        }\r\n\r\n        return coll;    \r\n    }\r\n}",
  "sourcePath": "D:\\BITS\\3-1\\Blockchain\\Fundraiser_Dapp\\contracts\\FundraiserFactory.sol",
  "compiler": {
    "name": "solc",
    "version": "0.8.17+commit.8df45f5f.Emscripten.clang"
  },
  "schemaVersion": "3.4.10",
  "updatedAt": "2022-12-01T08:50:18.882Z",
  "networkType": "ethereum",
  "devdoc": {
    "kind": "dev",
    "methods": {},
    "version": 1
  },
  "userdoc": {
    "kind": "user",
    "methods": {},
    "version": 1
  }
}